{
  "_format": "hh-sol-artifact-1",
  "contractName": "Blokemon",
  "sourceName": "contracts/Blokemon.sol",
  "abi": [
    {
      "inputs": [],
      "stateMutability": "payable",
      "type": "constructor"
    },
    {
      "anonymous": false,
      "inputs": [
        {
          "indexed": true,
          "internalType": "address",
          "name": "owner",
          "type": "address"
        },
        {
          "indexed": true,
          "internalType": "address",
          "name": "approved",
          "type": "address"
        },
        {
          "indexed": true,
          "internalType": "uint256",
          "name": "tokenId",
          "type": "uint256"
        }
      ],
      "name": "Approval",
      "type": "event"
    },
    {
      "anonymous": false,
      "inputs": [
        {
          "indexed": true,
          "internalType": "address",
          "name": "owner",
          "type": "address"
        },
        {
          "indexed": true,
          "internalType": "address",
          "name": "operator",
          "type": "address"
        },
        {
          "indexed": false,
          "internalType": "bool",
          "name": "approved",
          "type": "bool"
        }
      ],
      "name": "ApprovalForAll",
      "type": "event"
    },
    {
      "anonymous": false,
      "inputs": [
        {
          "indexed": true,
          "internalType": "address",
          "name": "previousOwner",
          "type": "address"
        },
        {
          "indexed": true,
          "internalType": "address",
          "name": "newOwner",
          "type": "address"
        }
      ],
      "name": "OwnershipTransferred",
      "type": "event"
    },
    {
      "anonymous": false,
      "inputs": [
        {
          "indexed": true,
          "internalType": "address",
          "name": "from",
          "type": "address"
        },
        {
          "indexed": true,
          "internalType": "address",
          "name": "to",
          "type": "address"
        },
        {
          "indexed": true,
          "internalType": "uint256",
          "name": "tokenId",
          "type": "uint256"
        }
      ],
      "name": "Transfer",
      "type": "event"
    },
    {
      "inputs": [
        {
          "internalType": "address",
          "name": "to",
          "type": "address"
        },
        {
          "internalType": "uint256",
          "name": "tokenId",
          "type": "uint256"
        }
      ],
      "name": "approve",
      "outputs": [],
      "stateMutability": "nonpayable",
      "type": "function"
    },
    {
      "inputs": [
        {
          "internalType": "address",
          "name": "owner",
          "type": "address"
        }
      ],
      "name": "balanceOf",
      "outputs": [
        {
          "internalType": "uint256",
          "name": "",
          "type": "uint256"
        }
      ],
      "stateMutability": "view",
      "type": "function"
    },
    {
      "inputs": [
        {
          "internalType": "uint256",
          "name": "tokenId",
          "type": "uint256"
        }
      ],
      "name": "getApproved",
      "outputs": [
        {
          "internalType": "address",
          "name": "",
          "type": "address"
        }
      ],
      "stateMutability": "view",
      "type": "function"
    },
    {
      "inputs": [
        {
          "internalType": "address",
          "name": "owner",
          "type": "address"
        },
        {
          "internalType": "address",
          "name": "operator",
          "type": "address"
        }
      ],
      "name": "isApprovedForAll",
      "outputs": [
        {
          "internalType": "bool",
          "name": "",
          "type": "bool"
        }
      ],
      "stateMutability": "view",
      "type": "function"
    },
    {
      "inputs": [],
      "name": "isMintEnabled",
      "outputs": [
        {
          "internalType": "bool",
          "name": "",
          "type": "bool"
        }
      ],
      "stateMutability": "view",
      "type": "function"
    },
    {
      "inputs": [],
      "name": "maxPerWallet",
      "outputs": [
        {
          "internalType": "uint256",
          "name": "",
          "type": "uint256"
        }
      ],
      "stateMutability": "view",
      "type": "function"
    },
    {
      "inputs": [],
      "name": "maxSupply",
      "outputs": [
        {
          "internalType": "uint256",
          "name": "",
          "type": "uint256"
        }
      ],
      "stateMutability": "view",
      "type": "function"
    },
    {
      "inputs": [
        {
          "internalType": "uint256[]",
          "name": "_arr",
          "type": "uint256[]"
        }
      ],
      "name": "mint",
      "outputs": [],
      "stateMutability": "payable",
      "type": "function"
    },
    {
      "inputs": [],
      "name": "mintPrice",
      "outputs": [
        {
          "internalType": "uint256",
          "name": "",
          "type": "uint256"
        }
      ],
      "stateMutability": "view",
      "type": "function"
    },
    {
      "inputs": [
        {
          "internalType": "address",
          "name": "",
          "type": "address"
        }
      ],
      "name": "mintedWallets",
      "outputs": [
        {
          "internalType": "uint256",
          "name": "",
          "type": "uint256"
        }
      ],
      "stateMutability": "view",
      "type": "function"
    },
    {
      "inputs": [],
      "name": "name",
      "outputs": [
        {
          "internalType": "string",
          "name": "",
          "type": "string"
        }
      ],
      "stateMutability": "view",
      "type": "function"
    },
    {
      "inputs": [],
      "name": "owner",
      "outputs": [
        {
          "internalType": "address",
          "name": "",
          "type": "address"
        }
      ],
      "stateMutability": "view",
      "type": "function"
    },
    {
      "inputs": [
        {
          "internalType": "uint256",
          "name": "tokenId",
          "type": "uint256"
        }
      ],
      "name": "ownerOf",
      "outputs": [
        {
          "internalType": "address",
          "name": "",
          "type": "address"
        }
      ],
      "stateMutability": "view",
      "type": "function"
    },
    {
      "inputs": [],
      "name": "renounceOwnership",
      "outputs": [],
      "stateMutability": "nonpayable",
      "type": "function"
    },
    {
      "inputs": [
        {
          "internalType": "address",
          "name": "from",
          "type": "address"
        },
        {
          "internalType": "address",
          "name": "to",
          "type": "address"
        },
        {
          "internalType": "uint256",
          "name": "tokenId",
          "type": "uint256"
        }
      ],
      "name": "safeTransferFrom",
      "outputs": [],
      "stateMutability": "nonpayable",
      "type": "function"
    },
    {
      "inputs": [
        {
          "internalType": "address",
          "name": "from",
          "type": "address"
        },
        {
          "internalType": "address",
          "name": "to",
          "type": "address"
        },
        {
          "internalType": "uint256",
          "name": "tokenId",
          "type": "uint256"
        },
        {
          "internalType": "bytes",
          "name": "data",
          "type": "bytes"
        }
      ],
      "name": "safeTransferFrom",
      "outputs": [],
      "stateMutability": "nonpayable",
      "type": "function"
    },
    {
      "inputs": [
        {
          "internalType": "address",
          "name": "operator",
          "type": "address"
        },
        {
          "internalType": "bool",
          "name": "approved",
          "type": "bool"
        }
      ],
      "name": "setApprovalForAll",
      "outputs": [],
      "stateMutability": "nonpayable",
      "type": "function"
    },
    {
      "inputs": [
        {
          "internalType": "string",
          "name": "baseTokenUri_",
          "type": "string"
        }
      ],
      "name": "setBaseTokenUri",
      "outputs": [],
      "stateMutability": "nonpayable",
      "type": "function"
    },
    {
      "inputs": [
        {
          "internalType": "uint256",
          "name": "maxSupply_",
          "type": "uint256"
        }
      ],
      "name": "setMaxSupply",
      "outputs": [],
      "stateMutability": "nonpayable",
      "type": "function"
    },
    {
      "inputs": [
        {
          "internalType": "bytes4",
          "name": "interfaceId",
          "type": "bytes4"
        }
      ],
      "name": "supportsInterface",
      "outputs": [
        {
          "internalType": "bool",
          "name": "",
          "type": "bool"
        }
      ],
      "stateMutability": "view",
      "type": "function"
    },
    {
      "inputs": [],
      "name": "symbol",
      "outputs": [
        {
          "internalType": "string",
          "name": "",
          "type": "string"
        }
      ],
      "stateMutability": "view",
      "type": "function"
    },
    {
      "inputs": [],
      "name": "toggleIsMintEnabled",
      "outputs": [],
      "stateMutability": "nonpayable",
      "type": "function"
    },
    {
      "inputs": [
        {
          "internalType": "uint256",
          "name": "index",
          "type": "uint256"
        }
      ],
      "name": "tokenByIndex",
      "outputs": [
        {
          "internalType": "uint256",
          "name": "",
          "type": "uint256"
        }
      ],
      "stateMutability": "view",
      "type": "function"
    },
    {
      "inputs": [
        {
          "internalType": "address",
          "name": "owner",
          "type": "address"
        },
        {
          "internalType": "uint256",
          "name": "index",
          "type": "uint256"
        }
      ],
      "name": "tokenOfOwnerByIndex",
      "outputs": [
        {
          "internalType": "uint256",
          "name": "",
          "type": "uint256"
        }
      ],
      "stateMutability": "view",
      "type": "function"
    },
    {
      "inputs": [
        {
          "internalType": "uint256",
          "name": "tokenId_",
          "type": "uint256"
        }
      ],
      "name": "tokenURI",
      "outputs": [
        {
          "internalType": "string",
          "name": "",
          "type": "string"
        }
      ],
      "stateMutability": "view",
      "type": "function"
    },
    {
      "inputs": [],
      "name": "totalAmount",
      "outputs": [
        {
          "internalType": "uint256",
          "name": "",
          "type": "uint256"
        }
      ],
      "stateMutability": "view",
      "type": "function"
    },
    {
      "inputs": [],
      "name": "totalSupply",
      "outputs": [
        {
          "internalType": "uint256",
          "name": "",
          "type": "uint256"
        }
      ],
      "stateMutability": "view",
      "type": "function"
    },
    {
      "inputs": [
        {
          "internalType": "address",
          "name": "from",
          "type": "address"
        },
        {
          "internalType": "address",
          "name": "to",
          "type": "address"
        },
        {
          "internalType": "uint256",
          "name": "tokenId",
          "type": "uint256"
        }
      ],
      "name": "transferFrom",
      "outputs": [],
      "stateMutability": "nonpayable",
      "type": "function"
    },
    {
      "inputs": [
        {
          "internalType": "address",
          "name": "newOwner",
          "type": "address"
        }
      ],
      "name": "transferOwnership",
      "outputs": [],
      "stateMutability": "nonpayable",
      "type": "function"
    },
    {
      "inputs": [],
      "name": "withdraw",
      "outputs": [],
      "stateMutability": "nonpayable",
      "type": "function"
    },
    {
      "inputs": [],
      "name": "withdrawWallet",
      "outputs": [
        {
          "internalType": "address payable",
          "name": "",
          "type": "address"
        }
      ],
      "stateMutability": "view",
      "type": "function"
    }
  ],
  "bytecode": "0x608060405266038d7ea4c68000600b556040518060400160405280600881526020017f426c6f6b656d6f6e0000000000000000000000000000000000000000000000008152506040518060400160405280600481526020017f424b4d4e0000000000000000000000000000000000000000000000000000000081525081600090816200008c919062000420565b5080600190816200009e919062000420565b505050620000c1620000b5620000d860201b60201c565b620000e060201b60201c565b6101f4600e819055506019600d8190555062000507565b600033905090565b6000600a60009054906101000a900473ffffffffffffffffffffffffffffffffffffffff16905081600a60006101000a81548173ffffffffffffffffffffffffffffffffffffffff021916908373ffffffffffffffffffffffffffffffffffffffff1602179055508173ffffffffffffffffffffffffffffffffffffffff168173ffffffffffffffffffffffffffffffffffffffff167f8be0079c531659141344cd1fd0a4f28419497f9722a3daafe3b4186f6b6457e060405160405180910390a35050565b600081519050919050565b7f4e487b7100000000000000000000000000000000000000000000000000000000600052604160045260246000fd5b7f4e487b7100000000000000000000000000000000000000000000000000000000600052602260045260246000fd5b600060028204905060018216806200022857607f821691505b6020821081036200023e576200023d620001e0565b5b50919050565b60008190508160005260206000209050919050565b60006020601f8301049050919050565b600082821b905092915050565b600060088302620002a87fffffffffffffffffffffffffffffffffffffffffffffffffffffffffffffffff8262000269565b620002b4868362000269565b95508019841693508086168417925050509392505050565b6000819050919050565b6000819050919050565b600062000301620002fb620002f584620002cc565b620002d6565b620002cc565b9050919050565b6000819050919050565b6200031d83620002e0565b620003356200032c8262000308565b84845462000276565b825550505050565b600090565b6200034c6200033d565b6200035981848462000312565b505050565b5b8181101562000381576200037560008262000342565b6001810190506200035f565b5050565b601f821115620003d0576200039a8162000244565b620003a58462000259565b81016020851015620003b5578190505b620003cd620003c48562000259565b8301826200035e565b50505b505050565b600082821c905092915050565b6000620003f560001984600802620003d5565b1980831691505092915050565b6000620004108383620003e2565b9150826002028217905092915050565b6200042b82620001a6565b67ffffffffffffffff811115620004475762000446620001b1565b5b6200045382546200020f565b6200046082828562000385565b600060209050601f83116001811462000498576000841562000483578287015190505b6200048f858262000402565b865550620004ff565b601f198416620004a88662000244565b60005b82811015620004d257848901518255600182019150602085019450602081019050620004ab565b86831015620004f25784890151620004ee601f891682620003e2565b8355505b6001600288020188555050505b505050505050565b61427480620005176000396000f3fe6080604052600436106101d85760003560e01c80636f8b44b011610102578063ada7c4ed11610095578063d5abeb0111610064578063d5abeb01146106ac578063e985e9c5146106d7578063f2fde38b14610714578063f8e93ef91461073d576101d8565b8063ada7c4ed146105f2578063b88d4fde1461062f578063c407321714610658578063c87b56dd1461066f576101d8565b80638da5cb5b116100d15780638da5cb5b1461054a57806395652cfa1461057557806395d89b411461059e578063a22cb465146105c9576101d8565b80636f8b44b0146104a257806370a08231146104cb578063715018a61461050857806385d178f41461051f576101d8565b80632f745c591161017a578063453c231011610149578063453c2310146103d25780634f6ccce7146103fd5780636352211e1461043a5780636817c76c14610477576101d8565b80632f745c591461032a578063346de50a146103675780633ccfd60b1461039257806342842e0e146103a9576101d8565b8063095ea7b3116101b6578063095ea7b31461028257806318160ddd146102ab5780631a39d8ef146102d657806323b872dd14610301576101d8565b806301ffc9a7146101dd57806306fdde031461021a578063081812fc14610245575b600080fd5b3480156101e957600080fd5b5061020460048036038101906101ff9190612919565b610759565b6040516102119190612961565b60405180910390f35b34801561022657600080fd5b5061022f6107d3565b60405161023c9190612a0c565b60405180910390f35b34801561025157600080fd5b5061026c60048036038101906102679190612a64565b610865565b6040516102799190612ad2565b60405180910390f35b34801561028e57600080fd5b506102a960048036038101906102a49190612b19565b6108ab565b005b3480156102b757600080fd5b506102c06109c2565b6040516102cd9190612b68565b60405180910390f35b3480156102e257600080fd5b506102eb6109cf565b6040516102f89190612b68565b60405180910390f35b34801561030d57600080fd5b5061032860048036038101906103239190612b83565b6109d5565b005b34801561033657600080fd5b50610351600480360381019061034c9190612b19565b610a35565b60405161035e9190612b68565b60405180910390f35b34801561037357600080fd5b5061037c610ada565b6040516103899190612961565b60405180910390f35b34801561039e57600080fd5b506103a7610aed565b005b3480156103b557600080fd5b506103d060048036038101906103cb9190612b83565b610bc6565b005b3480156103de57600080fd5b506103e7610be6565b6040516103f49190612b68565b60405180910390f35b34801561040957600080fd5b50610424600480360381019061041f9190612a64565b610bec565b6040516104319190612b68565b60405180910390f35b34801561044657600080fd5b50610461600480360381019061045c9190612a64565b610c5d565b60405161046e9190612ad2565b60405180910390f35b34801561048357600080fd5b5061048c610ce3565b6040516104999190612b68565b60405180910390f35b3480156104ae57600080fd5b506104c960048036038101906104c49190612a64565b610ce9565b005b3480156104d757600080fd5b506104f260048036038101906104ed9190612bd6565b610cfb565b6040516104ff9190612b68565b60405180910390f35b34801561051457600080fd5b5061051d610db2565b005b34801561052b57600080fd5b50610534610dc6565b6040516105419190612c24565b60405180910390f35b34801561055657600080fd5b5061055f610dec565b60405161056c9190612ad2565b60405180910390f35b34801561058157600080fd5b5061059c60048036038101906105979190612ca4565b610e16565b005b3480156105aa57600080fd5b506105b3610e34565b6040516105c09190612a0c565b60405180910390f35b3480156105d557600080fd5b506105f060048036038101906105eb9190612d1d565b610ec6565b005b3480156105fe57600080fd5b5061061960048036038101906106149190612bd6565b610edc565b6040516106269190612b68565b60405180910390f35b34801561063b57600080fd5b5061065660048036038101906106519190612e8d565b610ef4565b005b34801561066457600080fd5b5061066d610f56565b005b34801561067b57600080fd5b5061069660048036038101906106919190612a64565b610f8a565b6040516106a39190612a0c565b60405180910390f35b3480156106b857600080fd5b506106c1611006565b6040516106ce9190612b68565b60405180910390f35b3480156106e357600080fd5b506106fe60048036038101906106f99190612f10565b61100c565b60405161070b9190612961565b60405180910390f35b34801561072057600080fd5b5061073b60048036038101906107369190612bd6565b6110a0565b005b61075760048036038101906107529190613013565b611123565b005b60007f780e9d63000000000000000000000000000000000000000000000000000000007bffffffffffffffffffffffffffffffffffffffffffffffffffffffff1916827bffffffffffffffffffffffffffffffffffffffffffffffffffffffff191614806107cc57506107cb8261134c565b5b9050919050565b6060600080546107e29061308b565b80601f016020809104026020016040519081016040528092919081815260200182805461080e9061308b565b801561085b5780601f106108305761010080835404028352916020019161085b565b820191906000526020600020905b81548152906001019060200180831161083e57829003601f168201915b5050505050905090565b60006108708261142e565b6004600083815260200190815260200160002060009054906101000a900473ffffffffffffffffffffffffffffffffffffffff169050919050565b60006108b682610c5d565b90508073ffffffffffffffffffffffffffffffffffffffff168373ffffffffffffffffffffffffffffffffffffffff1603610926576040517f08c379a000000000000000000000000000000000000000000000000000000000815260040161091d9061312e565b60405180910390fd5b8073ffffffffffffffffffffffffffffffffffffffff16610945611479565b73ffffffffffffffffffffffffffffffffffffffff16148061097457506109738161096e611479565b61100c565b5b6109b3576040517f08c379a00000000000000000000000000000000000000000000000000000000081526004016109aa906131c0565b60405180910390fd5b6109bd8383611481565b505050565b6000600880549050905090565b600c5481565b6109e66109e0611479565b8261153a565b610a25576040517f08c379a0000000000000000000000000000000000000000000000000000000008152600401610a1c90613252565b60405180910390fd5b610a308383836115cf565b505050565b6000610a4083610cfb565b8210610a81576040517f08c379a0000000000000000000000000000000000000000000000000000000008152600401610a78906132e4565b60405180910390fd5b600660008473ffffffffffffffffffffffffffffffffffffffff1673ffffffffffffffffffffffffffffffffffffffff168152602001908152602001600020600083815260200190815260200160002054905092915050565b600f60009054906101000a900460ff1681565b610af56118c8565b6000600f60019054906101000a900473ffffffffffffffffffffffffffffffffffffffff1673ffffffffffffffffffffffffffffffffffffffff1647604051610b3d90613335565b60006040518083038185875af1925050503d8060008114610b7a576040519150601f19603f3d011682016040523d82523d6000602084013e610b7f565b606091505b5050905080610bc3576040517f08c379a0000000000000000000000000000000000000000000000000000000008152600401610bba90613396565b60405180910390fd5b50565b610be183838360405180602001604052806000815250610ef4565b505050565b600d5481565b6000610bf66109c2565b8210610c37576040517f08c379a0000000000000000000000000000000000000000000000000000000008152600401610c2e90613428565b60405180910390fd5b60088281548110610c4b57610c4a613448565b5b90600052602060002001549050919050565b600080610c6983611946565b9050600073ffffffffffffffffffffffffffffffffffffffff168173ffffffffffffffffffffffffffffffffffffffff1603610cda576040517f08c379a0000000000000000000000000000000000000000000000000000000008152600401610cd1906134c3565b60405180910390fd5b80915050919050565b600b5481565b610cf16118c8565b80600e8190555050565b60008073ffffffffffffffffffffffffffffffffffffffff168273ffffffffffffffffffffffffffffffffffffffff1603610d6b576040517f08c379a0000000000000000000000000000000000000000000000000000000008152600401610d6290613555565b60405180910390fd5b600360008373ffffffffffffffffffffffffffffffffffffffff1673ffffffffffffffffffffffffffffffffffffffff168152602001908152602001600020549050919050565b610dba6118c8565b610dc46000611983565b565b600f60019054906101000a900473ffffffffffffffffffffffffffffffffffffffff1681565b6000600a60009054906101000a900473ffffffffffffffffffffffffffffffffffffffff16905090565b610e1e6118c8565b818160109182610e2f92919061372c565b505050565b606060018054610e439061308b565b80601f0160208091040260200160405190810160405280929190818152602001828054610e6f9061308b565b8015610ebc5780601f10610e9157610100808354040283529160200191610ebc565b820191906000526020600020905b815481529060010190602001808311610e9f57829003601f168201915b5050505050905090565b610ed8610ed1611479565b8383611a49565b5050565b60116020528060005260406000206000915090505481565b610f05610eff611479565b8361153a565b610f44576040517f08c379a0000000000000000000000000000000000000000000000000000000008152600401610f3b90613252565b60405180910390fd5b610f5084848484611bb5565b50505050565b610f5e6118c8565b600f60009054906101000a900460ff1615600f60006101000a81548160ff021916908315150217905550565b6060610f9582611c11565b610fd4576040517f08c379a0000000000000000000000000000000000000000000000000000000008152600401610fcb90613848565b60405180910390fd5b6010610fdf83611c52565b604051602001610ff0929190613973565b6040516020818303038152906040529050919050565b600e5481565b6000600560008473ffffffffffffffffffffffffffffffffffffffff1673ffffffffffffffffffffffffffffffffffffffff16815260200190815260200160002060008373ffffffffffffffffffffffffffffffffffffffff1673ffffffffffffffffffffffffffffffffffffffff16815260200190815260200160002060009054906101000a900460ff16905092915050565b6110a86118c8565b600073ffffffffffffffffffffffffffffffffffffffff168173ffffffffffffffffffffffffffffffffffffffff1603611117576040517f08c379a000000000000000000000000000000000000000000000000000000000815260040161110e90613a14565b60405180910390fd5b61112081611983565b50565b600f60009054906101000a900460ff16611172576040517f08c379a000000000000000000000000000000000000000000000000000000000815260040161116990613a80565b60405180910390fd5b600d548151601160003373ffffffffffffffffffffffffffffffffffffffff1673ffffffffffffffffffffffffffffffffffffffff168152602001908152602001600020546111c19190613acf565b1115611202576040517f08c379a00000000000000000000000000000000000000000000000000000000081526004016111f990613b4f565b60405180910390fd5b600b5481516112119190613b6f565b3414611252576040517f08c379a000000000000000000000000000000000000000000000000000000000815260040161124990613bfd565b60405180910390fd5b600c54600e5411611298576040517f08c379a000000000000000000000000000000000000000000000000000000000815260040161128f90613c69565b60405180910390fd5b60005b815181101561134857601160003373ffffffffffffffffffffffffffffffffffffffff1673ffffffffffffffffffffffffffffffffffffffff16815260200190815260200160002060008154809291906112f490613c89565b9190505550600c600081548092919061130c90613c89565b91905055506113353383838151811061132857611327613448565b5b6020026020010151611d20565b808061134090613c89565b91505061129b565b5050565b60007f80ac58cd000000000000000000000000000000000000000000000000000000007bffffffffffffffffffffffffffffffffffffffffffffffffffffffff1916827bffffffffffffffffffffffffffffffffffffffffffffffffffffffff1916148061141757507f5b5e139f000000000000000000000000000000000000000000000000000000007bffffffffffffffffffffffffffffffffffffffffffffffffffffffff1916827bffffffffffffffffffffffffffffffffffffffffffffffffffffffff1916145b80611427575061142682611d3e565b5b9050919050565b61143781611c11565b611476576040517f08c379a000000000000000000000000000000000000000000000000000000000815260040161146d906134c3565b60405180910390fd5b50565b600033905090565b816004600083815260200190815260200160002060006101000a81548173ffffffffffffffffffffffffffffffffffffffff021916908373ffffffffffffffffffffffffffffffffffffffff160217905550808273ffffffffffffffffffffffffffffffffffffffff166114f483610c5d565b73ffffffffffffffffffffffffffffffffffffffff167f8c5be1e5ebec7d5bd14f71427d1e84f3dd0314c0f7b2291e5b200ac8c7c3b92560405160405180910390a45050565b60008061154683610c5d565b90508073ffffffffffffffffffffffffffffffffffffffff168473ffffffffffffffffffffffffffffffffffffffff1614806115885750611587818561100c565b5b806115c657508373ffffffffffffffffffffffffffffffffffffffff166115ae84610865565b73ffffffffffffffffffffffffffffffffffffffff16145b91505092915050565b8273ffffffffffffffffffffffffffffffffffffffff166115ef82610c5d565b73ffffffffffffffffffffffffffffffffffffffff1614611645576040517f08c379a000000000000000000000000000000000000000000000000000000000815260040161163c90613d43565b60405180910390fd5b600073ffffffffffffffffffffffffffffffffffffffff168273ffffffffffffffffffffffffffffffffffffffff16036116b4576040517f08c379a00000000000000000000000000000000000000000000000000000000081526004016116ab90613dd5565b60405180910390fd5b6116c18383836001611da8565b8273ffffffffffffffffffffffffffffffffffffffff166116e182610c5d565b73ffffffffffffffffffffffffffffffffffffffff1614611737576040517f08c379a000000000000000000000000000000000000000000000000000000000815260040161172e90613d43565b60405180910390fd5b6004600082815260200190815260200160002060006101000a81549073ffffffffffffffffffffffffffffffffffffffff02191690556001600360008573ffffffffffffffffffffffffffffffffffffffff1673ffffffffffffffffffffffffffffffffffffffff168152602001908152602001600020600082825403925050819055506001600360008473ffffffffffffffffffffffffffffffffffffffff1673ffffffffffffffffffffffffffffffffffffffff16815260200190815260200160002060008282540192505081905550816002600083815260200190815260200160002060006101000a81548173ffffffffffffffffffffffffffffffffffffffff021916908373ffffffffffffffffffffffffffffffffffffffff160217905550808273ffffffffffffffffffffffffffffffffffffffff168473ffffffffffffffffffffffffffffffffffffffff167fddf252ad1be2c89b69c2b068fc378daa952ba7f163c4a11628f55a4df523b3ef60405160405180910390a46118c38383836001611f06565b505050565b6118d0611479565b73ffffffffffffffffffffffffffffffffffffffff166118ee610dec565b73ffffffffffffffffffffffffffffffffffffffff1614611944576040517f08c379a000000000000000000000000000000000000000000000000000000000815260040161193b90613e41565b60405180910390fd5b565b60006002600083815260200190815260200160002060009054906101000a900473ffffffffffffffffffffffffffffffffffffffff169050919050565b6000600a60009054906101000a900473ffffffffffffffffffffffffffffffffffffffff16905081600a60006101000a81548173ffffffffffffffffffffffffffffffffffffffff021916908373ffffffffffffffffffffffffffffffffffffffff1602179055508173ffffffffffffffffffffffffffffffffffffffff168173ffffffffffffffffffffffffffffffffffffffff167f8be0079c531659141344cd1fd0a4f28419497f9722a3daafe3b4186f6b6457e060405160405180910390a35050565b8173ffffffffffffffffffffffffffffffffffffffff168373ffffffffffffffffffffffffffffffffffffffff1603611ab7576040517f08c379a0000000000000000000000000000000000000000000000000000000008152600401611aae90613ead565b60405180910390fd5b80600560008573ffffffffffffffffffffffffffffffffffffffff1673ffffffffffffffffffffffffffffffffffffffff16815260200190815260200160002060008473ffffffffffffffffffffffffffffffffffffffff1673ffffffffffffffffffffffffffffffffffffffff16815260200190815260200160002060006101000a81548160ff0219169083151502179055508173ffffffffffffffffffffffffffffffffffffffff168373ffffffffffffffffffffffffffffffffffffffff167f17307eab39ab6107e8899845ad3d59bd9653f200f220920489ca2b5937696c3183604051611ba89190612961565b60405180910390a3505050565b611bc08484846115cf565b611bcc84848484611f0c565b611c0b576040517f08c379a0000000000000000000000000000000000000000000000000000000008152600401611c0290613f3f565b60405180910390fd5b50505050565b60008073ffffffffffffffffffffffffffffffffffffffff16611c3383611946565b73ffffffffffffffffffffffffffffffffffffffff1614159050919050565b606060006001611c6184612093565b01905060008167ffffffffffffffff811115611c8057611c7f612d62565b5b6040519080825280601f01601f191660200182016040528015611cb25781602001600182028036833780820191505090505b509050600082602001820190505b600115611d15578080600190039150507f3031323334353637383961626364656600000000000000000000000000000000600a86061a8153600a8581611d0957611d08613f5f565b5b04945060008503611cc0575b819350505050919050565b611d3a8282604051806020016040528060008152506121e6565b5050565b60007f01ffc9a7000000000000000000000000000000000000000000000000000000007bffffffffffffffffffffffffffffffffffffffffffffffffffffffff1916827bffffffffffffffffffffffffffffffffffffffffffffffffffffffff1916149050919050565b611db484848484612241565b6001811115611df8576040517f08c379a0000000000000000000000000000000000000000000000000000000008152600401611def90614000565b60405180910390fd5b6000829050600073ffffffffffffffffffffffffffffffffffffffff168573ffffffffffffffffffffffffffffffffffffffff1603611e3f57611e3a81612367565b611e7e565b8373ffffffffffffffffffffffffffffffffffffffff168573ffffffffffffffffffffffffffffffffffffffff1614611e7d57611e7c85826123b0565b5b5b600073ffffffffffffffffffffffffffffffffffffffff168473ffffffffffffffffffffffffffffffffffffffff1603611ec057611ebb8161251d565b611eff565b8473ffffffffffffffffffffffffffffffffffffffff168473ffffffffffffffffffffffffffffffffffffffff1614611efe57611efd84826125ee565b5b5b5050505050565b50505050565b6000611f2d8473ffffffffffffffffffffffffffffffffffffffff1661266d565b15612086578373ffffffffffffffffffffffffffffffffffffffff1663150b7a02611f56611479565b8786866040518563ffffffff1660e01b8152600401611f789493929190614075565b6020604051808303816000875af1925050508015611fb457506040513d601f19601f82011682018060405250810190611fb191906140d6565b60015b612036573d8060008114611fe4576040519150601f19603f3d011682016040523d82523d6000602084013e611fe9565b606091505b50600081510361202e576040517f08c379a000000000000000000000000000000000000000000000000000000000815260040161202590613f3f565b60405180910390fd5b805181602001fd5b63150b7a0260e01b7bffffffffffffffffffffffffffffffffffffffffffffffffffffffff1916817bffffffffffffffffffffffffffffffffffffffffffffffffffffffff19161491505061208b565b600190505b949350505050565b600080600090507a184f03e93ff9f4daa797ed6e38ed64bf6a1f01000000000000000083106120f1577a184f03e93ff9f4daa797ed6e38ed64bf6a1f01000000000000000083816120e7576120e6613f5f565b5b0492506040810190505b6d04ee2d6d415b85acef8100000000831061212e576d04ee2d6d415b85acef8100000000838161212457612123613f5f565b5b0492506020810190505b662386f26fc10000831061215d57662386f26fc10000838161215357612152613f5f565b5b0492506010810190505b6305f5e1008310612186576305f5e100838161217c5761217b613f5f565b5b0492506008810190505b61271083106121ab5761271083816121a1576121a0613f5f565b5b0492506004810190505b606483106121ce57606483816121c4576121c3613f5f565b5b0492506002810190505b600a83106121dd576001810190505b80915050919050565b6121f08383612690565b6121fd6000848484611f0c565b61223c576040517f08c379a000000000000000000000000000000000000000000000000000000000815260040161223390613f3f565b60405180910390fd5b505050565b600181111561236157600073ffffffffffffffffffffffffffffffffffffffff168473ffffffffffffffffffffffffffffffffffffffff16146122d55780600360008673ffffffffffffffffffffffffffffffffffffffff1673ffffffffffffffffffffffffffffffffffffffff16815260200190815260200160002060008282546122cd9190614103565b925050819055505b600073ffffffffffffffffffffffffffffffffffffffff168373ffffffffffffffffffffffffffffffffffffffff16146123605780600360008573ffffffffffffffffffffffffffffffffffffffff1673ffffffffffffffffffffffffffffffffffffffff16815260200190815260200160002060008282546123589190613acf565b925050819055505b5b50505050565b6008805490506009600083815260200190815260200160002081905550600881908060018154018082558091505060019003906000526020600020016000909190919091505550565b600060016123bd84610cfb565b6123c79190614103565b90506000600760008481526020019081526020016000205490508181146124ac576000600660008673ffffffffffffffffffffffffffffffffffffffff1673ffffffffffffffffffffffffffffffffffffffff168152602001908152602001600020600084815260200190815260200160002054905080600660008773ffffffffffffffffffffffffffffffffffffffff1673ffffffffffffffffffffffffffffffffffffffff168152602001908152602001600020600084815260200190815260200160002081905550816007600083815260200190815260200160002081905550505b6007600084815260200190815260200160002060009055600660008573ffffffffffffffffffffffffffffffffffffffff1673ffffffffffffffffffffffffffffffffffffffff16815260200190815260200160002060008381526020019081526020016000206000905550505050565b600060016008805490506125319190614103565b905060006009600084815260200190815260200160002054905060006008838154811061256157612560613448565b5b90600052602060002001549050806008838154811061258357612582613448565b5b9060005260206000200181905550816009600083815260200190815260200160002081905550600960008581526020019081526020016000206000905560088054806125d2576125d1614137565b5b6001900381819060005260206000200160009055905550505050565b60006125f983610cfb565b905081600660008573ffffffffffffffffffffffffffffffffffffffff1673ffffffffffffffffffffffffffffffffffffffff168152602001908152602001600020600083815260200190815260200160002081905550806007600084815260200190815260200160002081905550505050565b6000808273ffffffffffffffffffffffffffffffffffffffff163b119050919050565b600073ffffffffffffffffffffffffffffffffffffffff168273ffffffffffffffffffffffffffffffffffffffff16036126ff576040517f08c379a00000000000000000000000000000000000000000000000000000000081526004016126f6906141b2565b60405180910390fd5b61270881611c11565b15612748576040517f08c379a000000000000000000000000000000000000000000000000000000000815260040161273f9061421e565b60405180910390fd5b612756600083836001611da8565b61275f81611c11565b1561279f576040517f08c379a00000000000000000000000000000000000000000000000000000000081526004016127969061421e565b60405180910390fd5b6001600360008473ffffffffffffffffffffffffffffffffffffffff1673ffffffffffffffffffffffffffffffffffffffff16815260200190815260200160002060008282540192505081905550816002600083815260200190815260200160002060006101000a81548173ffffffffffffffffffffffffffffffffffffffff021916908373ffffffffffffffffffffffffffffffffffffffff160217905550808273ffffffffffffffffffffffffffffffffffffffff16600073ffffffffffffffffffffffffffffffffffffffff167fddf252ad1be2c89b69c2b068fc378daa952ba7f163c4a11628f55a4df523b3ef60405160405180910390a46128a9600083836001611f06565b5050565b6000604051905090565b600080fd5b600080fd5b60007fffffffff0000000000000000000000000000000000000000000000000000000082169050919050565b6128f6816128c1565b811461290157600080fd5b50565b600081359050612913816128ed565b92915050565b60006020828403121561292f5761292e6128b7565b5b600061293d84828501612904565b91505092915050565b60008115159050919050565b61295b81612946565b82525050565b60006020820190506129766000830184612952565b92915050565b600081519050919050565b600082825260208201905092915050565b60005b838110156129b657808201518184015260208101905061299b565b60008484015250505050565b6000601f19601f8301169050919050565b60006129de8261297c565b6129e88185612987565b93506129f8818560208601612998565b612a01816129c2565b840191505092915050565b60006020820190508181036000830152612a2681846129d3565b905092915050565b6000819050919050565b612a4181612a2e565b8114612a4c57600080fd5b50565b600081359050612a5e81612a38565b92915050565b600060208284031215612a7a57612a796128b7565b5b6000612a8884828501612a4f565b91505092915050565b600073ffffffffffffffffffffffffffffffffffffffff82169050919050565b6000612abc82612a91565b9050919050565b612acc81612ab1565b82525050565b6000602082019050612ae76000830184612ac3565b92915050565b612af681612ab1565b8114612b0157600080fd5b50565b600081359050612b1381612aed565b92915050565b60008060408385031215612b3057612b2f6128b7565b5b6000612b3e85828601612b04565b9250506020612b4f85828601612a4f565b9150509250929050565b612b6281612a2e565b82525050565b6000602082019050612b7d6000830184612b59565b92915050565b600080600060608486031215612b9c57612b9b6128b7565b5b6000612baa86828701612b04565b9350506020612bbb86828701612b04565b9250506040612bcc86828701612a4f565b9150509250925092565b600060208284031215612bec57612beb6128b7565b5b6000612bfa84828501612b04565b91505092915050565b6000612c0e82612a91565b9050919050565b612c1e81612c03565b82525050565b6000602082019050612c396000830184612c15565b92915050565b600080fd5b600080fd5b600080fd5b60008083601f840112612c6457612c63612c3f565b5b8235905067ffffffffffffffff811115612c8157612c80612c44565b5b602083019150836001820283011115612c9d57612c9c612c49565b5b9250929050565b60008060208385031215612cbb57612cba6128b7565b5b600083013567ffffffffffffffff811115612cd957612cd86128bc565b5b612ce585828601612c4e565b92509250509250929050565b612cfa81612946565b8114612d0557600080fd5b50565b600081359050612d1781612cf1565b92915050565b60008060408385031215612d3457612d336128b7565b5b6000612d4285828601612b04565b9250506020612d5385828601612d08565b9150509250929050565b600080fd5b7f4e487b7100000000000000000000000000000000000000000000000000000000600052604160045260246000fd5b612d9a826129c2565b810181811067ffffffffffffffff82111715612db957612db8612d62565b5b80604052505050565b6000612dcc6128ad565b9050612dd88282612d91565b919050565b600067ffffffffffffffff821115612df857612df7612d62565b5b612e01826129c2565b9050602081019050919050565b82818337600083830152505050565b6000612e30612e2b84612ddd565b612dc2565b905082815260208101848484011115612e4c57612e4b612d5d565b5b612e57848285612e0e565b509392505050565b600082601f830112612e7457612e73612c3f565b5b8135612e84848260208601612e1d565b91505092915050565b60008060008060808587031215612ea757612ea66128b7565b5b6000612eb587828801612b04565b9450506020612ec687828801612b04565b9350506040612ed787828801612a4f565b925050606085013567ffffffffffffffff811115612ef857612ef76128bc565b5b612f0487828801612e5f565b91505092959194509250565b60008060408385031215612f2757612f266128b7565b5b6000612f3585828601612b04565b9250506020612f4685828601612b04565b9150509250929050565b600067ffffffffffffffff821115612f6b57612f6a612d62565b5b602082029050602081019050919050565b6000612f8f612f8a84612f50565b612dc2565b90508083825260208201905060208402830185811115612fb257612fb1612c49565b5b835b81811015612fdb5780612fc78882612a4f565b845260208401935050602081019050612fb4565b5050509392505050565b600082601f830112612ffa57612ff9612c3f565b5b813561300a848260208601612f7c565b91505092915050565b600060208284031215613029576130286128b7565b5b600082013567ffffffffffffffff811115613047576130466128bc565b5b61305384828501612fe5565b91505092915050565b7f4e487b7100000000000000000000000000000000000000000000000000000000600052602260045260246000fd5b600060028204905060018216806130a357607f821691505b6020821081036130b6576130b561305c565b5b50919050565b7f4552433732313a20617070726f76616c20746f2063757272656e74206f776e6560008201527f7200000000000000000000000000000000000000000000000000000000000000602082015250565b6000613118602183612987565b9150613123826130bc565b604082019050919050565b600060208201905081810360008301526131478161310b565b9050919050565b7f4552433732313a20617070726f76652063616c6c6572206973206e6f7420746f60008201527f6b656e206f776e6572206f7220617070726f76656420666f7220616c6c000000602082015250565b60006131aa603d83612987565b91506131b58261314e565b604082019050919050565b600060208201905081810360008301526131d98161319d565b9050919050565b7f4552433732313a2063616c6c6572206973206e6f7420746f6b656e206f776e6560008201527f72206f7220617070726f76656400000000000000000000000000000000000000602082015250565b600061323c602d83612987565b9150613247826131e0565b604082019050919050565b6000602082019050818103600083015261326b8161322f565b9050919050565b7f455243373231456e756d657261626c653a206f776e657220696e646578206f7560008201527f74206f6620626f756e6473000000000000000000000000000000000000000000602082015250565b60006132ce602b83612987565b91506132d982613272565b604082019050919050565b600060208201905081810360008301526132fd816132c1565b9050919050565b600081905092915050565b50565b600061331f600083613304565b915061332a8261330f565b600082019050919050565b600061334082613312565b9150819050919050565b7f7769746864726177206661696c65640000000000000000000000000000000000600082015250565b6000613380600f83612987565b915061338b8261334a565b602082019050919050565b600060208201905081810360008301526133af81613373565b9050919050565b7f455243373231456e756d657261626c653a20676c6f62616c20696e646578206f60008201527f7574206f6620626f756e64730000000000000000000000000000000000000000602082015250565b6000613412602c83612987565b915061341d826133b6565b604082019050919050565b6000602082019050818103600083015261344181613405565b9050919050565b7f4e487b7100000000000000000000000000000000000000000000000000000000600052603260045260246000fd5b7f4552433732313a20696e76616c696420746f6b656e2049440000000000000000600082015250565b60006134ad601883612987565b91506134b882613477565b602082019050919050565b600060208201905081810360008301526134dc816134a0565b9050919050565b7f4552433732313a2061646472657373207a65726f206973206e6f74206120766160008201527f6c6964206f776e65720000000000000000000000000000000000000000000000602082015250565b600061353f602983612987565b915061354a826134e3565b604082019050919050565b6000602082019050818103600083015261356e81613532565b9050919050565b600082905092915050565b60008190508160005260206000209050919050565b60006020601f8301049050919050565b600082821b905092915050565b6000600883026135e27fffffffffffffffffffffffffffffffffffffffffffffffffffffffffffffffff826135a5565b6135ec86836135a5565b95508019841693508086168417925050509392505050565b6000819050919050565b600061362961362461361f84612a2e565b613604565b612a2e565b9050919050565b6000819050919050565b6136438361360e565b61365761364f82613630565b8484546135b2565b825550505050565b600090565b61366c61365f565b61367781848461363a565b505050565b5b8181101561369b57613690600082613664565b60018101905061367d565b5050565b601f8211156136e0576136b181613580565b6136ba84613595565b810160208510156136c9578190505b6136dd6136d585613595565b83018261367c565b50505b505050565b600082821c905092915050565b6000613703600019846008026136e5565b1980831691505092915050565b600061371c83836136f2565b9150826002028217905092915050565b6137368383613575565b67ffffffffffffffff81111561374f5761374e612d62565b5b613759825461308b565b61376482828561369f565b6000601f8311600181146137935760008415613781578287013590505b61378b8582613710565b8655506137f3565b601f1984166137a186613580565b60005b828110156137c9578489013582556001820191506020850194506020810190506137a4565b868310156137e657848901356137e2601f8916826136f2565b8355505b6001600288020188555050505b50505050505050565b7f546f6b656e20646f6573206e6f74206578697374210000000000000000000000600082015250565b6000613832601583612987565b915061383d826137fc565b602082019050919050565b6000602082019050818103600083015261386181613825565b9050919050565b600081905092915050565b600081546138808161308b565b61388a8186613868565b945060018216600081146138a557600181146138ba576138ed565b60ff19831686528115158202860193506138ed565b6138c385613580565b60005b838110156138e5578154818901526001820191506020810190506138c6565b838801955050505b50505092915050565b60006139018261297c565b61390b8185613868565b935061391b818560208601612998565b80840191505092915050565b7f2e6a736f6e000000000000000000000000000000000000000000000000000000600082015250565b600061395d600583613868565b915061396882613927565b600582019050919050565b600061397f8285613873565b915061398b82846138f6565b915061399682613950565b91508190509392505050565b7f4f776e61626c653a206e6577206f776e657220697320746865207a65726f206160008201527f6464726573730000000000000000000000000000000000000000000000000000602082015250565b60006139fe602683612987565b9150613a09826139a2565b604082019050919050565b60006020820190508181036000830152613a2d816139f1565b9050919050565b7f4d696e74696e67206973206e6f7420656e61626c656400000000000000000000600082015250565b6000613a6a601683612987565b9150613a7582613a34565b602082019050919050565b60006020820190508181036000830152613a9981613a5d565b9050919050565b7f4e487b7100000000000000000000000000000000000000000000000000000000600052601160045260246000fd5b6000613ada82612a2e565b9150613ae583612a2e565b9250828201905080821115613afd57613afc613aa0565b5b92915050565b7f657863656564206d61782077616c6c6574000000000000000000000000000000600082015250565b6000613b39601183612987565b9150613b4482613b03565b602082019050919050565b60006020820190508181036000830152613b6881613b2c565b9050919050565b6000613b7a82612a2e565b9150613b8583612a2e565b9250828202613b9381612a2e565b91508282048414831517613baa57613ba9613aa0565b5b5092915050565b7f77726f6e672076616c7565000000000000000000000000000000000000000000600082015250565b6000613be7600b83612987565b9150613bf282613bb1565b602082019050919050565b60006020820190508181036000830152613c1681613bda565b9050919050565b7f536f6c64204f7574000000000000000000000000000000000000000000000000600082015250565b6000613c53600883612987565b9150613c5e82613c1d565b602082019050919050565b60006020820190508181036000830152613c8281613c46565b9050919050565b6000613c9482612a2e565b91507fffffffffffffffffffffffffffffffffffffffffffffffffffffffffffffffff8203613cc657613cc5613aa0565b5b600182019050919050565b7f4552433732313a207472616e736665722066726f6d20696e636f72726563742060008201527f6f776e6572000000000000000000000000000000000000000000000000000000602082015250565b6000613d2d602583612987565b9150613d3882613cd1565b604082019050919050565b60006020820190508181036000830152613d5c81613d20565b9050919050565b7f4552433732313a207472616e7366657220746f20746865207a65726f2061646460008201527f7265737300000000000000000000000000000000000000000000000000000000602082015250565b6000613dbf602483612987565b9150613dca82613d63565b604082019050919050565b60006020820190508181036000830152613dee81613db2565b9050919050565b7f4f776e61626c653a2063616c6c6572206973206e6f7420746865206f776e6572600082015250565b6000613e2b602083612987565b9150613e3682613df5565b602082019050919050565b60006020820190508181036000830152613e5a81613e1e565b9050919050565b7f4552433732313a20617070726f766520746f2063616c6c657200000000000000600082015250565b6000613e97601983612987565b9150613ea282613e61565b602082019050919050565b60006020820190508181036000830152613ec681613e8a565b9050919050565b7f4552433732313a207472616e7366657220746f206e6f6e20455243373231526560008201527f63656976657220696d706c656d656e7465720000000000000000000000000000602082015250565b6000613f29603283612987565b9150613f3482613ecd565b604082019050919050565b60006020820190508181036000830152613f5881613f1c565b9050919050565b7f4e487b7100000000000000000000000000000000000000000000000000000000600052601260045260246000fd5b7f455243373231456e756d657261626c653a20636f6e736563757469766520747260008201527f616e7366657273206e6f7420737570706f727465640000000000000000000000602082015250565b6000613fea603583612987565b9150613ff582613f8e565b604082019050919050565b6000602082019050818103600083015261401981613fdd565b9050919050565b600081519050919050565b600082825260208201905092915050565b600061404782614020565b614051818561402b565b9350614061818560208601612998565b61406a816129c2565b840191505092915050565b600060808201905061408a6000830187612ac3565b6140976020830186612ac3565b6140a46040830185612b59565b81810360608301526140b6818461403c565b905095945050505050565b6000815190506140d0816128ed565b92915050565b6000602082840312156140ec576140eb6128b7565b5b60006140fa848285016140c1565b91505092915050565b600061410e82612a2e565b915061411983612a2e565b925082820390508181111561413157614130613aa0565b5b92915050565b7f4e487b7100000000000000000000000000000000000000000000000000000000600052603160045260246000fd5b7f4552433732313a206d696e7420746f20746865207a65726f2061646472657373600082015250565b600061419c602083612987565b91506141a782614166565b602082019050919050565b600060208201905081810360008301526141cb8161418f565b9050919050565b7f4552433732313a20746f6b656e20616c7265616479206d696e74656400000000600082015250565b6000614208601c83612987565b9150614213826141d2565b602082019050919050565b60006020820190508181036000830152614237816141fb565b905091905056fea264697066735822122027b7e01a943105d8b0ea11ac23ac138808b01533b6f044f35fc80ec37c1289ea64736f6c63430008110033",
  "linkReferences": {},
  "deployedLinkReferences": {}
}